:020000040002F8
:1060000080580020C1630200C9630200CB63020014
:10601000CD630200CF630200D163020000000000E4
:10602000000000000000000000000000D363020038
:10603000D563020000000000D7630200D9630200AC
:1060400031660200DB630200196A0200DB630200B2
:10605000DB630200DB6302008D650200DB6302008C
:10606000DB630200DB630200DB630200DB63020030
:10607000DB630200DB630200DB630200DB63020020
:10608000DB63020089660200DB630200DB6302005F
:10609000DB630200DB630200F9660200DB630200DF
:1060A000DB630200DB630200DB630200DB630200F0
:1060B000DB630200DB630200000000000000000060
:1060C000DB630200DB630200DB630200DB630200D0
:1060D000DB630200DB630200DB6302000000000000
:1060E00000000000000000000000000000000000B0
:1060F00000000000000000000000000000000000A0
:10610000000000000000000000000000000000008F
:10611000000000000000000000000000000000007F
:10612000000000000000000000000000000000006F
:10613000000000000000000000000000000000005F
:10614000000000000000000000000000000000004F
:10615000000000000000000000000000000000003F
:10616000000000000000000000000000000000002F
:10617000000000000000000000000000000000001F
:10618000000000000000000000000000000000000F
:1061900000000000000000000000000000000000FF
:1061A00000000000000000000000000000000000EF
:1061B00000000000000000000000000000000000DF
:1061C00000000000000000000000000000000000CF
:1061D00000000000000000000000000000000000BF
:1061E00000000000000000000000000000000000AF
:1061F000000000000000000000000000000000009F
:10620000DFF80CD000F084F90048004711A7020025
:106210008058002030B450E8012F93B2C489234441
:106220008489A34228BF1B1B0489A34202BFBFF37A
:106230002F8F002007E0C3EA020340E80134002C5E
:10624000E9D14FF001000A6030BC704750E8012FDF
:10625000C2EA024240E801210029F7D1704730B478
:1062600050E8022F1FFAA2F3C488A34202BFBFF373
:106270002F8F00200DE0C48923448489A34228BFC6
:106280001B1BC2EA034340E80234002CE8D14FF064
:1062900001000A6030BC704750E8022FC2EA224277
:1062A00040E802210029F7D17047034653E8022F46
:1062B000D988B2EB324F4FF0000017BF92B241EADB
:1062C000014142EA014104E05A68B2EB324F08BF93
:1062D000012043E80212002AE8D1704730B4044696
:1062E00054E8000F0D4644E80053002BF8D1156028
:1062F00030BC704730B4044654E8000F40EA010552
:1063000044E80053002BF7D1156030BC704730B41F
:10631000044654E8000F00EA010544E80053002B4E
:10632000F7D1156030BC704730B4044654E8000F14
:1063300080EA010544E80053002BF7D1156030BC1A
:10634000704730B4044654E8000F00EB010544E800
:106350000053002BF7D1156030BC704730B40446B1
:1063600054E8000FA0EB010544E80053002BF7D1DF
:10637000156030BC704770B404464FF0000054E81C
:10638000006F0D68AE4207BF44E80023012044E8D7
:1063900000630E60002B1CBF0020F0E770BC70474C
:1063A00030B4044654E8000F88422CBF451A054615
:1063B00044E80053002BF5D1156030BC7047000055
:1063C0000648804706480047FEE7FEE7FEE7FEE78F
:1063D000FEE7FEE7FEE7FEE7FEE7FEE7FD660200FA
:1063E000016202002DE9F05F0546002092469B46BF
:1063F00088460646814640241BE0284641464746DB
:10640000224600F074F853465A46C01A914110D300
:1064100011461846224600F016F82D1A67EB0108BF
:106420004F4622460120002100F00DF817EB00092D
:106430004E41201EA4F10104DFDC484631462A46C5
:106440004346BDE8F09F202A04DB203A00FA02F11F
:10645000002070479140C2F1200320FA03F3194352
:1064600090407047004870477812030040EA0103EB
:106470009B0703D009E008C9121F08C0042AFAD2FA
:1064800003E011F8013B00F8013B521EF9D27047BE
:10649000D2B201E000F8012B491EFBD27047002266
:1064A000F6E710B513460A4604461946FFF7F0FF13
:1064B000204610BD421C10F8011B0029FBD1801A98
:1064C000704730B504460020034600E05B1C934251
:1064D00003D2E05CCD5C401BF8D030BD034611F820
:1064E000012B00F8012B002AF9D118467047202A09
:1064F00004DB203A21FA02F00021704721FA02F36E
:10650000D040C2F120029140084319467047000074
:10651000064C074D06E0E06840F0010394E80700F0
:1065200098471034AC42F6D3FFF76EFED028030034
:10653000F028030070B58C1810F8015B15F0070304
:1065400001D110F8013B2A1106D110F8012B03E00C
:1065500010F8016B01F8016B5B1EF9D12B0705D414
:106560000023521E0DD401F8013BFAE710F8013B5D
:10657000CB1A921C03E013F8015B01F8015B521E79
:10658000F9D5A142D8D3002070BD00002DE9F84311
:106590000025DFF894804FF4807601242F46009583
:1065A000304605F095F938B1D8F80403204203D0FD
:1065B000304605F083F92543361D64007F1CB6B2D2
:1065C000082FEDD34FF4BE74204605F081F948B191
:1065D000204605F073F945F000456A460121002088
:1065E00005F02EF915F0FF0F16D0012600242E42DB
:1065F0000ED008EB8401D1F81005D1F81015C0F3C6
:1066000004200A4AC1F3014152F8242002B1904704
:106610007600641C082CEAD3002D02DA684608F0E4
:1066200029FABDE8F883000000600040042D002036
:1066300070B54FF48076304604F0AAFC114CB505D5
:1066400060B1304604F0ABFC0120C5F80803607966
:1066500020B9012060712168002088474FF48276BC
:10666000304604F095FC00280AD0304604F097FC30
:106670000220C5F808032168BDE8704001200847E2
:1066800070BD00004423002002490248091F096828
:10669000006808479823002000F0C4B970B50E4682
:1066A000144900EB400001EBC0051446E86A1835B8
:1066B00020B101280FD0022805D113E0284600F0B0
:1066C000E5F9A04201D2002411E0224631462846D5
:1066D00000F014FA0BE0284600F0D8F9A042F4D2FA
:1066E0000446F2E73146284600F0DBF9044620462E
:1066F00070BD0000F835002005F090BEF0B5B5483B
:106700000023021D0178101D01254FF08054062939
:106710000BD11678360708D10678C6F30316032E78
:1067200006D0042E04D0052E02D0062907D00EE094
:10673000B4F82463A84FC6F304263E6002E016783E
:10674000360704D10678C6F30316032E02D00629B5
:1067500004D00FE0A24FA14E7E670EE016783607F8
:1067600008D10678C6F30316032E06D0042E04D0F3
:10677000052E02D0062907D00EE0D4F84462994FC6
:10678000C6F342363E6002E01678360704D106783A
:10679000C6F30316032E02D0062906D011E0924E4E
:1067A000376827F0807737600EE01678360708D113
:1067B0000678C6F30316032E06D0042E04D0052E49
:1067C00002D006290AD011E04FF08046C6F80C31FD
:1067D000C6F81031834E361F336002E01678360754
:1067E00004D10678C6F30316032E02D0062905D07D
:1067F0000CE07C4F032664373E600AE016783607CB
:1068000004D10678C6F30316032E02D006290DD054
:1068100014E0764F05263E60744E78363560734E30
:10682000083633603F263F1D3E6002E0167836078B
:1068300004D10678C6F30316052E02D0062957D0D8
:1068400062E06B4E36686B4F3E60694E361D3668AF
:106850003F1D3E60664E083636683F1D3E60644E02
:106860000C3636683F1D3E60614E103636683F1D5F
:106870003E605F4E143636683F1D3E605C4E1836F3
:1068800036685C4F20373E60594E1C3636683F1DD7
:106890003E60574E203636683F1D3E60544E2436CB
:1068A00036683F1D3E60524E283636683F1D3E60BA
:1068B0004F4E2C3636683F1D3E604D4E30363668A2
:1068C0004C4F40373E604A4E343636683F1D3E607E
:1068D000474E383636683F1D3E60454E3C3636687A
:1068E0003F1D3E60424E403636683F1D3E6002E02E
:1068F0001678360708D10678C6F30316032E06D09D
:10690000042E04D0052E02D0062907D019E0D4F8B1
:106910005812394A01F04F01116002E0117809075D
:106920000FD10078C0F30310032803D0042801D04E
:10693000052806D131480168C90702D06FF001016E
:106940000160D4F83001062808D1D4F834010628B3
:1069500004D12B48016841F48061016022487438F9
:10696000016841F470010160BFF34F8FBFF36F8F77
:106970004FF01021D1F80002002803DBD1F8040207
:10698000002822DA1F4A15601F480468002CFCD03A
:106990001524C1F800420568002DFCD0C1F804425E
:1069A00001680029FCD0136001680029FCD0BFF306
:1069B0004F8F0D48F0380168144A01F4E06111432B
:1069C0000160BFF34F8F00BFFDE712491048086018
:1069D000F0BD0000E00F00F0403501400DF0ADBA11
:1069E00000C007403C050040FCED00E010560040B0
:1069F0000404001020C50040E40E004000040040E4
:106A00003C17004004E5014000E401400400FA05A1
:106A10000090D00364240020014800680047000073
:106A20004C23002010B5124C02202061606111A09F
:106A3000A06104F17800E0614FF400702062002052
:106A4000A06260620BA1A164E06204F51E71E164C2
:106A50001021A065C4E91410E06509A1E01DFFF74D
:106A60003DFD08A12046FFF739FD2020A07110BD93
:106A7000F83500205465726D696E616C000000008D
:106A80005254540053454747455200000269C168BB
:106A90008A4203D88068401A104400E0501A401E11
:106AA00070472DE9F047C4681746894606464FF0FF
:106AB00000083069A04201D9051B02E0B168201A24
:106AC0000D1AB0686D1E001BA84200D80546BD42D5
:106AD00000D33D4670682A4620444946FFF7C6FC6D
:106AE000B0687F1B2C44A844A944A04200D10024D4
:106AF000F460002FDDD14046BDE8F0872DE9F0417C
:106B000004468846D4E90207C51BE168606816465A
:106B10000844B54206D94146FFF7A8FCB819E06021
:106B2000BDE8F0812A464146FFF7A0FC761B08EB42
:106B3000050132466068FFF799FCE660F0E702E085
:106B400008C8121F08C1002AFAD1704770470020F8
:106B500001E001C1121F002AFBD17047012120284A
:106B600003DA81400548014003E0402802DA20387A
:106B7000814009B10120704700207047FC06FFBD2D
:106B80002DE9F843804643F2020659B9694607F0F9
:106B90007BF9B04202D008B100F0D6F99DF80000B0
:106BA000800744D40021404607F078F905003ED024
:106BB000112D3CD01F482049401AC708022000EB85
:106BC00007440D2D0AD00B2D1DD0B5421FD11B49F6
:106BD00020464246BDE8F84305F09CB820464246B0
:106BE000174905F097F81321404676DF00281ED09C
:106BF00005F0C6FC024601B020464346BDE8F0431E
:106C000010A105F08EB8204642461C49E2E728460E
:106C100005F0B6FC0246012000EB0740434618A1F0
:106C200005F07FF82846BDE8F84300F08DB9BDE8CF
:106C3000F88300004829030010290300981A030074
:106C4000241A030073645F626C655F6761705F6440
:106C50006973636F6E6E656374282920726574753D
:106C6000726E6564202573206F6E20636F6E6E5F99
:106C700068616E646C652025642E0000E41A0300D0
:106C8000417373657274696E672E20706D5F636FF8
:106C90006E6E5F7365637572652829207265747501
:106CA000726E6564202573206F6E20636F6E6E5F59
:106CB00068616E646C652025642E000010B560B1BB
:106CC00059B102780B785208B2EB530F05D1062266
:106CD000401C491CFFF7F5FB08B1002010BD012046
:106CE00010BD800701D00020704701207047C368A5
:106CF0008B4206D811440069491E814201D8012007
:106D000070470020704790F82400012801D01F2010
:106D10007047EE20704710B501220221002001F0DB
:106D200023FA08B1072820D107220221012001F00F
:106D30001BFA08B1072818D100210A22084601F0E1
:106D400013FA08B1072810D112220221042001F001
:106D50000BFA08B1072808D110220121022001F006
:106D600003FA08B1072800D1002010BD10B560B1AA
:106D70000B480C49401AC008032101EB00400AA14E
:106D800004F0C4FF07F006FE03E003210A4800F008
:106D900092FC002803D0BDE8104000F0D5B810BD2B
:106DA000B829030010290300457261736520626FE2
:106DB0006E647321000000009C24002070B58CB02C
:106DC00015460E4600236C46C3F10F01415CE154A9
:106DD0005B1C102BF8D30D2104F11000FFF75FFBB3
:106DE0000020C0F10F02315C2244401C11740328C2
:106DF000F7D3684646DF0020C0F10F01214491F827
:106E000020102954401C0328F6D30CB070BD02207A
:106E100001F0A8B80149C97800F010BE182300207D
:106E200070B50024064D06E06868012110F83400B2
:106E300005F01AFC641C28788442F5D3002070BD4C
:106E400058230020F8B516460C4605460A2A01D2FA
:106E50000720F8BD05F002FD18B905F0C5FC0028B3
:106E6000F7D1134F102113487D603C70BE60FFF7CF
:106E700016FB0020C7E904000F4E0DE005EBC4002F
:106E80003168009181788DF8011000780B4A6946CD
:106E900005F03AFC0028DCD1641EE4B2EED2BDE875
:106EA000F84005480021064A001D00F05FB80000C8
:106EB00058230020D02D0020C40E0300919A020018
:106EC000C589020072B604F0CBFF00BF04F002FED9
:106ED0000028FBD111481249401AC408012000EBD8
:106EE000044010A104F012FF11480068C00700D050
:106EF00000BE022000EB04400EA104F007FFBFF328
:106F00004F8F0B48E43801680E4A01F4E0611143E9
:106F10000160BFF34F8F00BFFDE70000B8290300F9
:106F200010290300466174616C206572726F7200F3
:106F3000F0ED00E053797374656D207265736574CC
:106F4000000000000400FA050EB500210091CDE913
:106F500001106A4644F20100FFF7B4FF0EBD0000C5
:106F6000014801F096BD0000782300203AB1006886
:106F70000129426100D000210161002070470720F3
:106F80007047000038B51148082358224168009125
:106F90000F49006803F0D9FD002815D10D4A694654
:106FA0000D4801F07BFD04000ED101210A4801F0DB
:106FB000F0FD0123094A1946074801F042FD064940
:106FC000012008390870204638BD0000CC0E0300AF
:106FD000F02D002059F1020078230020FFFF7F00F0
:106FE00070B50446007F0D4608B1002070BDA26157
:106FF00002F034FD401941F10001C4E902012069A9
:1070000000B125612146BDE87040002009F0DAB8E2
:10701000014600200877012009F0D4B830B5EFF31D
:10702000108172B60D4A9468012324B103700029BF
:1070300000D162B630BD93604FF0E023D3F88051A9
:10704000074C25401560C3F88041D3F88441546053
:107050005A17C3F8842100220270E8E7482E002066
:10706000FC06FFBD0B498A68002A11D000280FD109
:10707000EFF3108072B60B684FF0E022C2F80031D7
:107080004B68C2F8043100228A60002800D162B641
:1070900070470000482E00202DE9F04106460868A0
:1070A0000C46411C4FF0A0474FF0010506D005FAF1
:1070B00000F1C7F80815206804F09CFB6068411CCB
:1070C00002D0002104F084FB3168A069C1F82405D6
:1070D000607D227D31681043C1F86C05D4E900124F
:1070E0003068C0F81425C0F80C15207D012815D192
:1070F000A068411C02D0002104F06AFBE068411C3A
:1071000005D08540C7F80855E06804F073FBD4E962
:1071100002123068C0F80825C0F81015BDE8F081EB
:107120002DE9F041064608680C46411C4FF0A04787
:107130004FF0010506D005FA00F1C7F808152068E0
:1071400004F062FB6068411C02D0002104F049FB9E
:107150003168A069C1F82405607D217D326808434B
:10716000C2F86C05D4E900123068C0F80C15C0F8FC
:107170001425207D012815D1A068411C02D00021D2
:1071800004F02FFBE068411C05D08540C7F8085586
:10719000E06804F039FBD4E902123068C0F8082531
:1071A000C0F81015BDE8F08103F07EB92DE9F04775
:1071B000814605884A484FF000088AB00178424667
:1071C000284600F053FC99F80500400701D400213F
:1071D00076E005F58077B8B205AB0122072106F00D
:1071E000A9FA04003F48404A4FF00101A0EB020019
:1071F0004FEAD00001EB00460AD0204605F0C0F966
:10720000024630462B46394904F08BFD214629E0E1
:10721000284602F0DDFE4FF6FF71044688422BD16E
:107220008A46069802F03EFE0446504510D00146BC
:10723000284602F0ADFE2846FFF7ECFDE0B92846EF
:1072400008F040FA2846FFF7E5FD0028BFD013E01C
:1072500006F046FC0446504508D1304624A104F00F
:1072600055FD0421284608F05BFAB0E701462846A0
:1072700002F08EFE4FF00108B8B22246072106F058
:10728000D1FA07001BD0862F1ED005F079F90246EF
:1072900030462B462349009404F04BFD39462846DE
:1072A00008F03EFA0021484606F03CF9B8F1000F1C
:1072B00002D0204602F076FE0AB0BDE8F087012138
:1072C000484606F02FF9F7E7142217496846FFF7FA
:1072D000CDF8ADF80250684601F07CFEEFE7000003
:1072E000182300205029030010290300E01D03008B
:1072F000436F756C64206E6F7420616C6C6F63619A
:107300007465206E657720706565725F69642066BC
:107310006F7220696E636F6D696E6720626F6E6455
:107320002E000000FC1E0300640E03002DE9FC4744
:10733000002517880646158090F82D0014468946CA
:1073400030B13A462146484600F0B6FB051E09D149
:10735000B0784FF00C0A18B32088C846001DB84218
:1073600002D95046BDE8FC87684679DF0028F9D18C
:107370002088032108F8001020881921401C80B2C1
:10738000208008F800102088401C80B2208000EB8C
:107390000801BDF8000009F0E4F8218808442080C5
:1073A000F0780222C8B1218896F9033001F1030C6C
:1073B0004846BC45D5D8425421884FF0010C491CA1
:1073C00089B2218000F801C02188491C89B221803E
:1073D00009F801302088401C20807068B8B12188ED
:1073E00090F9003001F1030C4846BC45B9D842542D
:1073F00021880A22491C89B2218042542188491CD3
:1074000089B2218009F801302088401C2080308911
:1074100050B1CDE900474B460622022106F1080093
:1074200009F08EF9051E9DD1308A50B1CDE9004793
:107430004B460722032106F1100009F081F9051ED1
:1074400090D1308B50B1CDE900474B461522142125
:1074500006F1180009F074F9051E83D1306A30B1C5
:107460003B462246494601F040F9051EDBD1706AD1
:1074700030B13B462246494603F042FA051ED2D1BE
:1074800096F82C0038B13B4622464946304608F073
:10749000ABFA051EC7D1307838B13B462246494683
:1074A000304603F0BBFA051EBDD128465AE718B591
:1074B00004460020ADF8000013466A46204600F05E
:1074C00006F8002802D0BDF80000204418BD70B5B1
:1074D000E0B1DAB1002402E0045D2C44A4B2651CE2
:1074E0008D4206D21688A642F6D8061976789E42B4
:1074F000F2D18C420AD2A31C005D9BB200B1401EA7
:107500000004000C02D01C188C4201D9002070BD70
:10751000138070BD80F8301070472DE9F0410D00E8
:10752000044606D02CB195F87A000026012803D035
:1075300006E00E20BDE8F08195F89800012829D0DA
:10754000D5F8A000042825D0D5F89C00042821D027
:107550004FF00108A6702C2205F17801201DFEF7DE
:1075600085FF84F83060D5F8A4006063D5F8A800E2
:10757000A0634FF6FF70A4F8240404F58260C4F8F9
:107580002004C4F82664A4F82A6484F82C642078C3
:1075900010B104E00720CDE7FF2084F8540004F187
:1075A00055072046C4F81074FFF7ADFBA4F8140487
:1075B00004F2144239462846FFF7B8FE0028B9D134
:1075C00004F23120C4F818042046FFF79CFBA4F80D
:1075D0001C0404F21C4205F13C00D4F81814FFF717
:1075E000A5FE0028A6D184F85180208BA4F848007D
:1075F00084F83C80266484F85060606900216064EF
:10760000454604F13C02781E72DF002892D12570B5
:1076100090E710B50288102A1BD0112A20D0262A04
:107620001DD1007A0C46012801D0022817D1A0787C
:107630000521401CB0FBF1F201FB1201204600F0D5
:107640003AF800280BD0A16B002908D0BDE8104003
:107650000847C27B012A02D18088A1F8240410BD0A
:107660000C46002184F82E148088B4F82414884233
:10767000F5D120790028F2D10121DFE710B50446C9
:1076800090F8540074DF012084F82E04002084F860
:10769000300484F850000621204601F0D4FE002872
:1076A00008D1A178204600F006F810B1A16B01B115
:1076B0008847002010BD2DE9F05F044600780F4692
:1076C00098B1A7700025C4F82654A4F82A5484F869
:1076D0002C54A079012608B1012F09D0E07980B19E
:1076E000012F05D0022F03D00BE00820BDE8F09F4A
:1076F000616B21B184F82D640820884701E084F88B
:107700002D5404F2274100200A5C0AB1304603E000
:10771000401C0628F8D300204FF002084FF0030B5E
:10772000012F06D0022F0CD0032F0FD0042F15D11C
:1077300010E0A17929B194F8241011B908B13046AC
:107740000DE0E17911B108B1404608E0207A08B1B6
:10775000584604E0607A08B1042000E02846A07092
:10776000616B41B1032801D0042804D1607910B1C4
:1077700094F82E0498B184F82F5404F13C00182199
:107780000746FEF78CFE84F83C6004F12C0006F0FE
:10779000D9FA58B194F82C0084F8510008E084F824
:1077A000305484F82F6407208847E6E784F8516056
:1077B00094F8240058B104F1280006F0C3FA20B16F
:1077C00094F8280084F8520001E084F8526084F8AC
:1077D0005050A27804F2264104F582694FF0060A5F
:1077E000052A64D2DFE802F07C030F22420084F80D
:1077F0003160C4F82054C4E9101584F83C8080201E
:10780000A4F8480055E084F8318094F824203846E4
:1078100012B10722027001E080F800B0228A828152
:10782000C4F820544160E168B96042E06069B86022
:10783000208BB88194F824003D460028204602D0D1
:1078400084F83CA001E084F83C6008F045FF50B1AA
:1078500085F814800421204601F0F5FD38BB052190
:1078600084F8311021E084F831B01EE0E069B8609E
:10787000208CB88194F824003D460028204602D090
:1078800084F83CA001E084F83C6008F025FF48B192
:1078900085F814800421204601F0D5FD38B984F81C
:1078A00031A002E0042084F83100C4F82094A078CC
:1078B00078B13A4604F15400D4F8201472DF00285D
:1078C0007FF414AF94F8301094F8540073DF00285C
:1078D000F6D1616B11B194F831008847002005E7BB
:1078E00084F83150F5E7000070B5040012D001466D
:1078F0001C221448FEF7BAFD1248134D056020689B
:1079000050B17ADF002806D12068016829604068FC
:10791000686005E00E2070BD0B487BDF0028FAD1BF
:1079200008484FF6FF711438084A20F8041B05492F
:10793000343901600021FFF719FB0028EBD0032048
:1079400070BD000074290020702200207106030021
:1079500010B5044600F0A6F8002805D02146BDE881
:107960001040024803F070B910BD0000A0290020AB
:1079700070B515460E46044608F0BAFE002809D038
:10798000054800EB8400C0692A463146BDE87040D6
:1079900001F086BD70BD00009029002010B504469E
:1079A00000F080F8002805D02146BDE810400248CC
:1079B00003F04AB910BD0000A829002010B5044604
:1079C00000F070F8002805D02146BDE810400248BC
:1079D00003F03AB910BD0000A429002070B5054697
:1079E000002400F05FF838B12946044803F02CF970
:1079F00008B1022400E00124204670BD9C2900202B
:107A000070B50546002400F04DF838B12946044809
:107A100003F01AF908B1022400E00124204670BDE9
:107A20009829002010B51821034803F0E8F8182819
:107A300000D0C0B210BD00009029002070B50546EE
:107A40000C46084608F054FE60B1284600F02AF8BB
:107A500040B10548294600EB8400BDE870401C3069
:107A600003F0F2B8002070BD9029002070B50546E3
:107A700016460C46084608F03BFE00280ED0284665
:107A800000F010F8002809D00548324600EB8400C9
:107A90002946BDE870401C3001F0D0BC70BD00002C
:107AA00090290020142801D3002070470146014886
:107AB00003F0CAB8942900207CB5054608880C4616
:107AC0000930904201D90C207CBD68466DDF00284A
:107AD000FAD121880820685420881B21401C80B2DC
:107AE000208029542088401C80B220802844DDF862
:107AF00001100160BDF8051081802088801D80B2D2
:107B000020809DF80010490800D0012129542088C8
:107B1000401C208000207CBD38B5044601882848E0
:107B2000284A801AC008042202EB0040212933D0E1
:107B300012DC244A224B4FF00300A3EB02024FEA6F
:107B4000D20200EB0240102911D0112930D1BDE83A
:107B500038401DA104F0DAB83B292AD0562927D194
:107B60001DA104F0D3F8A088132176DF0EE020A138
:107B700004F0CCF8072000F019FB08B1FFF7E4F996
:107B80001E48A18801801E4803F08AF900280FD002
:107B9000BDE83840FFF7D8B91AA104F0B7F80020C3
:107BA0000090A08869468FDF002801D0FFF7CCF94C
:107BB00038BD19A104F0AAF8A088132176DFE5E703
:107BC000B829030010290300446973636F6E6E6562
:107BD000637465642E00000047415454205365725D
:107BE0007665722054696D656F75742E0000000013
:107BF000436F6E6E65637465642E00005022002032
:107C0000902400205048592075706461746520727A
:107C10006571756573742E004741545420436C6937
:107C2000656E742054696D656F75742E00000000D8
:107C300010B51A4C0188606810290ED011292BD17B
:107C4000401E606028D1FFF766F8002824D0216824
:107C5000002921D0BDE810400847D0B900210122F9
:107C6000084600F081FA08B107280FD10722022147
:107C7000012000F079FA08B1072807D10422022177
:107C8000002000F071FA20B1072802D0216801B16C
:107C900088476068401C606010BD000068220020BA
:107CA0002DE9F04701883B4E40F2F3194FF6FF757E
:107CB00010291BD011293ED0122954D0502946D169
:107CC000C188F289841D914241D1618902293ED146
:107CD0008688304602F02AFA050038D004F10C00FC
:107CE00000F0FCF8A8B3294630464EE0C17B8788F7
:107CF000044601292BD1A846284602F017FA0500B0
:107D000017D02F8000202872234843464A46016836
:107D1000C5F80A104068C5F80E0004F1100105F11D
:107D20000A0002F0C7FA6872F08900280FD12946CC
:107D30002AE0042013E0808802F0F8F9040006D05D
:107D40006068FFF765F908B107F0CEFC2580BDE853
:107D5000F087FFE76868FFF75BF90028F7D0BDE818
:107D6000F04707F0C1BC87880646384602F0DEF9C6
:107D70000400ECD02B464A4606F1080104F10A0043
:107D800002F098FA607221463846BDE8F04700F0EC
:107D9000F3BC000074290020702200202DE9F04F70
:107DA000044686880188424897B0834610290CD043
:107DB000112950D0103019296AD01A2974D1217A8A
:107DC0000C09042C4DD301224CE0394D083DA86824
:107DD000C0430B9069680BA802F05AFF0B990CA8DE
:107DE00000F064FC2C220CA96846FEF73FFB00273C
:107DF000E946A84610E000BF09EB47005FF0000528
:107E0000B0F804A008EB85005146001D02F0DCFE2E
:107E10006D1C1E2DF6D37F1C0098B842ECD8142E92
:107E200005D317B00420BDE8F04FFFF78DB83146F9
:107E3000584602F014FF314608F1040002F00FFF2B
:107E4000E07B022830D117B03146BDE8F04F18482A
:107E5000001D02F004BF17B03146BDE8F04F02F03C
:107E6000B3BE0022314601F0E9FA032C01D301220E
:107E700000E000220E4831460C3001F0DFFA022CFF
:107E800001D3012200E0002209483146083006E013
:107E9000217A002908D1617AC1F3C002314617B0B6
:107EA000BDE8F04F01F0CABA17B0BDE8F08F00008E
:107EB0009829002010B504460748007800280AD009
:107EC000204601F061FF204607F0E6FD2046BDE8B0
:107ED000104001F0FFBB10BDA8220020007800F088
:107EE000010070470149085C70470000FC0C03006A
:107EF0000649095C4FF0A040D0F81005C84010F0CA
:107F0000010000D0012080F001007047FC0C03004C
:107F10002DE9FC410646C0074FF000050ED0104F7A
:107F200000240122385D009500231146019503F0DD
:107F3000F5FB641C042CF4D300F046F8B0070DD513
:107F4000074E0024361D0022305D032300951146A4
:107F5000019503F0E3FB641C042CF4D3BDE8FC8121
:107F6000F80C030007490B5C4FF0A041D1F8042541
:107F70000120984020EA0203C1F808351040C1F8FA
:107F80000C057047F80C03000249085C012103F05E
:107F90008ABC0000F80C03000249085C002103F0D1
:107FA00082BC0000F80C03000649095C4FF0A040B9
:107FB000D0F80405C84010F0010000D0012080F086
:107FC00001007047F80C030010B500242046FFF7AD
:107FD000DBFF641C042CF9D310BD10B5002420462F
:107FE000FFF7DAFF641C042CF9D310BD10B502466C
:107FF000064B4FF0FF3000215C5C944201D10846F3
:1080000010BD491C0429F7D310BD0000FC0C03006F
:1080100070B50C4E0C004FF0000530600BD0012005
:1080200000F06AF808B1022004E0002000F064F8D3
:1080300000B10B202070706810B9FEF76CFE054689
:10804000284670BD6822002010B5002000F0E8F935
:1080500008B1062806D1012000F0E2F908B106288F
:1080600000D1002010BD00002DE9F0470D468146EB
:10807000FFF7BCFF0446042836D2DFF874801B48A3
:108080001C4EA8F10C0725B3012D0ED0022D2BD1CB
:1080900004EB440030444578002D25D0B968002910
:1080A00022D02846BDE8F047084704EB4401755C40
:1080B0000E44717849B10E4A4FF48041093A806804
:1080C000FEF78EFF08B987F80390B17808F804101E
:1080D000E2E78068FEF79CFF04EB4401314418F8A6
:1080E00004008D78A842D7D0BDE8F087000D0300CA
:1080F0006422002010290020042801D2FFF7F8BED6
:108100000020704710B501460A281BD014DC144823
:10811000042900881AD0072920D1A0F57F41FF3912
:108120001CD11048FFF7AAFA082817D0002815D04C
:10813000BDE81040FEF708BF10290AD012280DD163
:10814000132007E0BDE8104007F092BC132176DF52
:10815000EAE71220BDE8104003F097BB10BD000015
:10816000502200209C24002070B50023042810D247
:108170000D4D00EB4004012A02D101290CD0002250
:10818000094E00EB4000304461B1012906D00229BC
:1081900006D00723184670BD0E30C2B22A55F9E743
:1081A0004270F7E78270F5E710290020044A014683
:1081B00000201279D20702D0084600F04DB870476F
:1081C0005822002070B506461E480024C0E901610F
:1081D000B00720D50025012211462846FFF7C4FF2D
:1081E0006D1C0446042D02D2002CF4D013E094B987
:1081F00040F2333204211448FEF724FE04000AD171
:10820000FEF70EFE040006D10F48104A0021001FA1
:10821000FEF7ACFE0446F00712D00120FFF778FE0F
:1082200074B909480A4A00210C38FEF79FFE040081
:1082300006D10548074A01210838FEF797FE044693
:10824000204670BD582200200C0D03002D85020031
:1082500049A302000F6E02002DE9F05F6E4C054647
:1082600000266078B34618B184F801B002F054F8E3
:108270006A4F4FF47A694FF4C87A4FF00108182D0D
:1082800069D2DFE805F00C1313384754696E727B2E
:10829000727BC58484848484B3B6B9BCC5C502F03E
:1082A0003BF83868FEF7B4FE06465CE00020FFF7B6
:1082B0007BFE00284FF0000008D0FFF765FE022D7E
:1082C00002D14FF4E16008E0484606E0FFF764FEA3
:1082D000022D01D1C82000E05046410CC0034FF4EC
:1082E0007A72801841F10001257052000023FEF7D8
:1082F00079F801462AE00020FFF756FE00284FF0EB
:10830000000004D0FFF740FE4FF44870E5E7FFF7A8
:1083100043FEDFE70020FFF747FE00284FF0000094
:1083200002D0FFF731FECFE7FFF736FED4E700209B
:10833000FFF73AFE00284FF0000002D0FFF724FEBE
:1083400001E0FFF729FE257040F6CD410022386894
:10835000FEF746FE064646E00020FFF703FE2570C6
:1083600008E0002051E025703DE084F80180012004
:10837000FFF7F8FD002240F26661E8E784F801802B
:108380000120FFF7EFFD00224FF40051DFE778688E
:10839000FEF73EFE0646D5F1110000D02EB10220B8
:1083A000FFF7F2FD84F802B01DE0012816D980B273
:1083B000C8214843C117C90341EA5041C0034FF4E3
:1083C0007A72801841F1000152000023FEF70AF88A
:1083D000014600227868FEF703FE06460220FFF7FA
:1083E000DBFD84F802803046BDE8F09F01F094FF89
:1083F000B9E701F091FFB4E701F08EFF04E001F06E
:108400008BFF0020FFF7C8FD0120FFF7C5FDAAE79D
:10841000FFF7E3FDA7E7000058220020000D03004E
:10842000012108F0F4B900002DE9F84F0546861C3B
:1084300000208DF8000091460F464FF0010A684673
:10844000FEF7ECFD1B4C04F21C4860683860D4E970
:108450000101194F401A3968081A0EE001214046FF
:1084600002F010FC02F002F90146404602F00AFC5C
:10847000D4E90101401A3968081A401C8642EDD837
:10848000B9F1000F03D0052065F3891002E0062042
:1084900065F39F5061683A68114004EB8101C86040
:1084A0006068304460609DF80000FEF7DBFD5046D8
:1084B000BDE8F88FD83100200C24002070B50D469F
:1084C00004460A2902D10D21FFF7F8FFA0682268AF
:1084D000411CA1601554D4E90101814204D3204616
:1084E000BDE8704002F0DFBD70BD00000448816847
:1084F0004068814201D10120704700207047000090
:10850000D8310020034630B507480021047842687E
:1085100006E000BF02EBC10005789D4203D0491C74
:10852000A142F7DB002030BD582300200078022153
:10853000FFF79ABD1CB5044601F04AFD00236A46C8
:10854000092105F039FA052805D1034801224179AE
:108550002046FFF78BFA1CBD782200201CB504468C
:108560000020009042F6A620ADF8000001208DF812
:108570000200084801AA6946006801902046A0DF71
:10858000002805D10448012281792046FFF76EFAC0
:108590001CBD00002C0D03007822002005494FF07F
:1085A000FF32082841F8202002D3084480F84820F0
:1085B00070470000042D0020F0B54FF0FF3512B1D8
:1085C0000023082601E008230C260C4C05E000BF20
:1085D00054F823707F1C04D05B1CB342F8D32846A8
:1085E000F0BD26185DB286F8305044F82310002AFA
:1085F000F5D1E11881F84800F1E70000042D0020D2
:108600000249084490F9300070470000042D002012
:1086100070B504464FF6FF750A462846AC4209D1AC
:108620004FF480742146104602F0E9FA80B2A0426D
:108630000BD070BDFF2CFCD82146104602F0CFFABB
:1086400090F0010F01D0204670BD284670BD00009B
:1086500070B5084C050009D010342168002907D0F6
:1086600008682060496828468847F6E70834F4E738
:1086700070BD0000F02C0020054A012120B1012826
:1086800005D19170FFF7E4BF51700020FAE7704701
:10869000F02C002010B5D0E90234D1E90220D11A23
:1086A000A04101D3012010BD002010BD73B58CB0D6
:1086B0000646002000900D9880B100246D462146AA
:1086C0000DA802F0C1FA30B1009805EB400084809B
:1086D0000098401C0090641C142CF0D32C22694696
:1086E0003046FDF7C3FE0EB070BD2DE9F04117888E
:1086F0000646B81D14460D46984202D90C20BDE826
:10870000F0813188072206290AD34FF4486C4FF6CE
:10871000FF73614501D9994202D17088062801D2C0
:108720001046ECE7604501D99842F9D1994203D04F
:10873000984201D08142F3D80520E85520881221C3
:10874000401C80B2208029542088401C80B22080A8
:108750004119308807F005FF2188084480B2208045
:108760004119708807F0FDFE218808442080002010
:10877000C5E7FEF7E9BB000038B54A7A0F4B62B196
:1087800000220A725969002906D001228DF80020C2
:10879000ADF802006846884738BD0A7A62B19B6826
:1087A0004C68024619462046FEF71AFC0028F3D012
:1087B000BDE8384006F098BF5B68F1E774290020F7
:1087C000F0B585B016460F4604461D4614220B49E7
:1087D0006846FDF74BFE0A488DF80870ADF8024078
:1087E000ADF80A608DF80C50017800222046FFF7A2
:1087F0003DF9684600F0EEFB05B0F0BD780E0300D1
:1088000018230020FEF7BCB9F0B50C4606461E48FA
:108810001E4987B0401AC708042000EB07403346C2
:1088200022461BA103F07DFA002004900590ADF8CC
:10883000104001900290ADF8124001AA04A9304600
:1088400090DF05001DD003F09BFE0346012000EBE6
:108850000740044632461A4903F063FABDF8042083
:1088600012B9BDF8060028B1BDF80630204615A1A2
:1088700003F057FABDF808201AB12046214903F049
:1088800049FA07B02846F0BD282903001029030043
:108890005570646174696E672064617461206C65F1
:1088A0006E67746820746F202575206F6E20636F6B
:1088B0006E6E656374696F6E20307825782E0000C7
:1088C00004160300546865207265717565737465DC
:1088D000642054582F5258207061636B6574206C6B
:1088E000656E67746820697320746F6F206C6F6E9B
:1088F000672062792025752F2575206F6374657454
:10890000732E00005016030070B50446094801217B
:1089100002F0D3F9BFF35F8F0025002808D120466D
:1089200001F01EFE002803D1BFF35F8F01480560F0
:1089300070BD0000842200202DE9FF410C4620B1CB
:108940004FF4064004B0BDE8F0812079002748F2DA
:10895000096538B141F61D5601281BD0022826D0E2
:10896000681DEFE70220207102970397E0680190ED
:10897000694601A806F006FB50B102988188E180A3
:1089800000882081BDF80010029806F079FBD9E735
:108990002846D7E70A4B6A460021A01D06F0AAFA2E
:1089A00038B1074918398F61CF61A842CAD1304622
:1089B000C8E703488188019806F062FBF5E70000EC
:1089C000B823002070B500240F4D10E0686800EB5C
:1089D000C406307803F0FEFE7178012901D0012130
:1089E00000E000214140307800F048FA641C28780B
:1089F0008442EBDBD5E90401084303D0BDE87040B5
:108A000007F0FCBB70BD00005823002010B500210A
:108A1000024802F052F980F3100010BDF435002036
:108A20004FF480328A400168C1F848230068C0F8DA
:108A3000082370474FF4A07202EB810189B200F065
:108A40008DBA2DE9F04105460E464FF4A07000EBBB
:108A5000860081B228684FF48034B440984622F0F2
:108A60007F47C0F808432868C0F84843286803F0E7
:108A70001BFB286800EB8600C0F840752868C0F82A
:108A80004443B8F1000F02D02868C0F80443BDE8A1
:108A9000F0810068D0F804057047000070B5437994
:108AA000234C44F823204279231D03EBC202224CBD
:108AB0001579204A121BD4082DB10825022000EB9D
:108AC00004401EA130E005680A88C5F8082590F921
:108AD00004208978002A4FEA411104DB02F1E022E8
:108AE00082F8001405E002F00F0202F1E02282F8A1
:108AF000141D90F904100122002909DB01F01F0563
:108B000002FA05F54909890001F1E021C1F8005197
:108B10004179002503EBC1010A71417943F8310025
:108B2000032000EB04400EA103F0F0F8284670BDCE
:108B30009423002098290300102903005254432055
:108B4000696E7374616E636520616C7265616479CE
:108B500020696E697469616C697A65642E00000031
:108B60005254433A20696E697469616C697A65642C
:108B70002E00000090F90400002809DB00F01F021D
:108B8000012191404009800000F1E020C0F800126E
:108B900070470A46022100F067B94FF4827100F075
:108BA000DDB9006801210160704700680121416062
:108BB00070472DE9F05F07460C464FF4A07000EBBC
:108BC00084001FFA80FA38684FF48036A6409B462E
:108BD00022F07F45C0F848633868C0F808633868F9
:108BE000D0F8048500EB8402D2F84095C2F84085A5
:108BF0005146386803F058FAA9EB080020F07F408E
:108C0000012806D1102003F027FD5146386803F0F3
:108C10004BFA3868D0F80485C0F84463A5EB080126
:108C200021F07F413868012900EB840010D0C0F8A2
:108C300040553868D0F804156FF07F4C6A1A521E00
:108C400022F07F42ACEB0B03934217D362B118E0E2
:108C50006D1CC0F84055102003F0FEFC3868D0F8B9
:108C6000040540450AD10CE000EB84006D1CC0F8FF
:108C700040553868D0F80405884202D00D20BDE880
:108C8000F09F01223146384600F0EEF80020F6E76A
:108C900013460A460021FFF793BD00002DE9F84373
:108CA000104D0F4680461E4691466946286801F0E1
:108CB0005FFF040014D01C21FDF7F1FB012020719F
:108CC000C4F81490380BC4F80080C4E90260694607
:108CD000286801F06EFF06F075F80020BDE8F88303
:108CE0000420FBE7700F030010B503780022072B68
:108CF00006D2DFE803F005040610202930000A70D0
:108D000010BD01230B7003898B818388CB81C068E0
:108D100088600A7410BD02220A7002898A818288E2
:108D2000CA81C2688A60807D062802D0002008744B
:108D300010BD0120FBE703220A70C2888A810289E4
:108D4000CA81C068886010BD04230B70C088888108
:108D5000CA818A6010BD0520087010BD70B5064D2F
:108D60000646002455F8241009B130468847641C93
:108D7000042CF7D370BD0000702E002030B50446DF
:108D8000006887B00D46806800281FD0182168460B
:108D9000FDF785FB0195A0680590207910B10128A9
:108DA00010D107E001208DF8000020690290E068F2
:108DB000039005E002208DF80000E06800030290B7
:108DC00060690490206881686846884707B030BDB4
:108DD000F0B585B017460C0005463AD0112C38D0B6
:108DE000082C36D01C481D49401AC6080D2C11D03D
:108DF000204603F0C5FB0246012000EB06402B464F
:108E0000174902F08EFF2A460721684601F064FEEA
:108E100002941BE0022000EB06402A46114902F0B2
:108E200079FF2A460321684601F056FE27B13878BB
:108E3000C00701D0012000E002208DF808000020CA
:108E40008DF80C0041F20110ADF80A00684600F000
:108E5000CFF805B0F0BD0000582903001029030029
:108E6000C8200300B81F03000368C3F84413002A96
:108E700002D00068C0F80413704700002DE9F84FD5
:108E80000E463449804601EB5001C007097801D0F5
:108E90000F0901E001F00F074FF0000942460120E1
:108EA0004946FDF7D0FADFF8B0A004460D46052F7D
:108EB0004ED2DFE807F003161B282C00002E47D007
:108EC0000121404607F07EF88DF800906846FEF7D5
:108ED000A5F85046D0E904120C431543CAE90445ED
:108EE00032E00EB1022114E0002112E04EB1032164
:108EF000404607F067F84046BDE8F84F012107F00B
:108F00000FBC012105E0002E22D1042101E02EB189
:108F100003214046BDE8F84F07F054B80021404611
:108F200007F050F80021404607F0FAFB8DF800905A
:108F30006846FEF773F85046E243D0E904341A401D
:108F400024EA0501CAE904219DF80000FEF78AF829
:108F5000BDE8F88FD02D00205823002010B5006800
:108F600042581AB103F0A0F8012010BD002010BD36
:108F700010B50446408801F02BF8A0800248016833
:108F80002046BDE8104008478022002010B5044666
:108F9000808800F067FF6080024801682046BDE8D5
:108FA00010400847902200202DE9F0410746002498
:108FB000064E074D05E000BF56F824103846884796
:108FC000641CE8788442F7DBBDE8F081A42C002023
:108FD000A822002010B50446408800F0F9FFA080C8
:108FE000024801682046BDE810400847380E0300DB
:108FF0000149096808470000B40E030070B586B047
:10900000044614216846FDF74AFAA0890125A0F517
:109010004040ADF8040020782F4E062833D2DFE818
:1090200000F0320303032C4AA08900F0EBF930B9B9
:10903000E08943F6FE71A0F54040884223D8A07B2A
:109040008DF80800207803280FD000208DF8090043
:10905000A0680390606850B109208DF80000606836
:109060000490684604F0FAFB0DE00120EEE70820CA
:109070008DF800008DF81050F3E7A08900F0C2F9D8
:1090800008B1E08930B17078002801D004F03AFDD1
:1090900006B070BD606830B10B208DF800006068CC
:1090A00002907570DDE70A208DF80000BDF804001D
:1090B00004F0CCFDF5E7606848B114208DF800009D
:1090C000606802904FF6FF70ADF80400C9E7132006
:1090D0008DF80000F6E700009422002038B5044621
:1090E0000F480078B0B1A4F57F40FF380FD0684634
:1090F00005F098FD88B10521017001210171C4803E
:10910000684605F09DFD05F04FFE002038BD48F291
:10911000036038BD48F2016038BD48F2076038BDD1
:10912000C02300200D4808B5007888B1684605F0D6
:1091300079FD80B106210170684605F081FD08487F
:10914000017809B10121017305F02EFE002008BD50
:1091500048F2016008BD48F2076008BDC023002046
:10916000342F0020F0B587B014216846FDF797F939
:10917000304C207818B16846FFF7F0FD57E0201D0D
:1091800001F07DFD98BB40F6F8700168481C02D1E3
:109190004FF0102041694FF08050026940694B1C2C
:1091A00001D100FB02F1244800220161A1F54051E8
:1091B000C160224902F00CF9002823D121481C2368
:1091C0008C221F49006801F0C0FC04F0D3F80500B0
:1091D00016D0022D14D000270126062D14D005A884
:1091E00005F020FD98B106700C2D1BD200E01EE0AA
:1091F000DFE805F0181018101817181718121412B5
:1092000048F20A6007B0F0BD26706760B3E748F225
:109210000760F7E7077105E0032100E00221017113
:1092200000E0067105A805F00BFD05F0BDFD00206E
:10923000E8E70000C023002068240020800F03001E
:10924000802E0020E80E030038B5040014D06946D3
:1092500005F098FEB0B1BDF8000000EB80010B48AE
:1092600000EB8100C16851B1A17A41B1C168491ECA
:10927000C1600020A07238BD48F2046038BD48F2D9
:10928000056038BD48F2096038BD00000C2F002091
:109290001FB501A9684605F02DFE04B010BD07B545
:1092A00013460A466946002005F024FE0EBD07B5A8
:1092B00013460A460021684605F01CFE0EBD20B18B
:1092C00019B1006808600020704748F204607047D8
:1092D000F8B50D46040018D0BDB1694605F052FE40
:1092E000B0B1BDF800000C4900EB800001EB80003C
:1092F00001210C30666801F0C5FC2E6060680C30FE
:1093000068600120A0720020F8BD48F20460F8BD3A
:1093100048F20960F8BD00000C2F002018B10323AB
:10932000002207F0B7BB48F2046070470223002216
:1093300007F0B0BB094910B50A69042A0AD0084AE7
:10934000096942F8210005480121103001F09AFC1A
:10935000002010BD48F20B6010BD0000A0230020CB
:10936000702E00202DE9F84F044624480078D8B12B
:10937000F4B112212046FDF792F80320DFF8809027
:109380002080002504F1100804F10E0A05EB850188
:1093900009EB810630897189084487B2706803F04F
:1093A00073FF032807D009E048F20160BDE8F88F99
:1093B00048F20460FAE72088401E20806088F16847
:1093C000084460802089718908442081608938447C
:1093D0006081C7F58060A18980B2814200D2A081FE
:1093E0005346A21D211D2846CDF8008005F066FEDB
:1093F0006D1CADB2022DC9D30020D7E7C0230020D9
:109400000C2F002043F6FE71A0F54040884201D8A1
:10941000012070470020704710B5044600781828D6
:1094200002D1FEF7FFFA207010BD10B50446007897
:10943000182802D1FEF7F6FA207010BD0AB101F02B
:109440000EBC01F0C1BB70B50D460446B0F8141453
:10945000D0F810040122FEF72AF800B1057004F1DB
:109460003C0204F5826104F1540072DF70BD00001B
:1094700070B5134600220546112900D10122074C80
:1094800033B12179FEF7F2FA00226178284600E034
:109490006178BDE87040FEF7E9BA000020230020A3
:1094A000F7B517460E0011D00098002560B10024D2
:1094B0002146684601F0C8FB18B1A0B23946B04752
:1094C0006D1C641C142CF3D32846FEBD0020FEBD89
:1094D000406805F0C7BB000070B510B14FF40640FE
:1094E00070BD1A4C0025207B08B1257301E000F007
:1094F000A1F82078082826D2DFE800F02504080C1F
:1095000010251420BDE8704000F022B8BDE870407E
:1095100000F07EB8BDE8704000F060B8BDE8704073
:1095200000F03CB86088094900EB8000283901EB65
:1095300080004068BDE8704003F0FCBE6560BDE897
:10954000704003F005BF48F20E6070BD342F00205C
:109550001149F0B48A1C00200346A1F128050C181B
:10956000A67A4EB1A37200EB800405EB8404E66892
:1095700016B9247C012C0AD0401C80B20228EED3FC
:109580000B704B804B60F0BC41F61D507047108053
:10959000F0BC00F03DB80000342F00200C4841889A
:1095A00001EB8102A0F1280101EB8201CA6852B1EE
:1095B00005210170074802218180016800230122F2
:1095C000054801F069BE042202704968F6E7000010
:1095D000342F0020C82300206824002038B50A4911
:1095E000084803240B684268898803EB810153888B
:1095F0000470DB1C00201B0400909B0B034801F04F
:109600009FFF38BD342F0020C8230020682400208D
:10961000074910B54888091D05F004FD18B1BDE8DB
:109620001040FFF7DBBFBDE81040FFF7B7BF0000F9
:10963000342F002070B5194C0121207808281AD247
:10964000DFE800F00419191C252929182089134A7C
:10965000401C2081002060802073283A00EB8003AA
:1096600012F8233043B100232518401C80B2AB729E
:109670000228F3D3217070BD0123F5E76068084923
:1096800040888A88C01C10448880022004E000F0D2
:1096900009F8062000E00720207070BD342F00205C
:1096A000C82300200A4909484988026801EB810360
:1096B0000749283901EB83014B6803604A608288BF
:1096C0000A8102228280002008747047C82300208B
:1096D000342F00202DE9F043064680883288DFF8D9
:1096E0005C8185B00746502A37D010DC5449554B71
:1096F00006F10A05A1EB03014FEAD1014FF0020385
:1097000003EB0144352A3AD0362A07D168E0522AC1
:1097100002D0542AF9D102E000F0C6FE82E0142201
:1097200049496846FCF7A2FEADF80270384600F0E1
:109730004FFCADF8040000F0C9F90022444698F847
:1097400004103846FEF792F90022E1783846FEF719
:109750008DF96846FFF70CFC64E0307B012861D18D
:10976000B07A01285ED13089A0F52451023959D14F
:109770000121384600F0ECFE06F062FF52E098F856
:109780000610FEF75BF900284CD0002298F806106E
:109790003846FEF76BF9F288B2F5857F17D012B123
:1097A00020462AA10BE02A88012A03D0204636A1B0
:1097B00002F0B0FA6A88012A04D0204641A102F0E2
:1097C000A9FA04E0A98800223846A1DF08B10021E7
:1097D00025E0012298F807103846FEF747F921E006
:1097E0004FF0000998F80710FEF728F9D0B10022D1
:1097F00098F807103846FEF739F9F28812B120467A
:1098000012A104E0AA88012A04D020462DA102F06A
:1098100081FA03E0A87900B1012081464946384623
:1098200006F032FC0022364998F80200FEF7A0F854
:1098300005B0BDE8F04305F0CFBF0000782200205E
:109840001029030010290300840D0300556E65786C
:109850007065637465642047415454207374617467
:109860007573207768696C652067657474696E67C5
:109870002043415220636861722076616C75653ABD
:1098800020307825780000004D756C7469706C6527
:109890002028256429204341522063686172616356
:1098A00074657269737469637320666F756E642C76
:1098B000207573696E6720746865206669727374B9
:1098C0002E000000556E65787065637465642043F2
:1098D000415220636861726163746572697374696F
:1098E000632076616C7565206C656E6774682028EE
:1098F0002564292C2073746F726520302E000000BF
:10990000A971020070B504460078002814D160885F
:1099100000F0CAFD6588284600F09AF928B107488A
:109920000122C1782846FEF7A1F86088FEF702FE02
:10993000BDE8704006F084BE70BD000078220020B3
:1099400070B5204C00252570FEF76CF86070FEF7AE
:1099500069F8A070FEF766F8E070FEF763F8207112
:10996000FEF760F86071FEF75DF8A071FEF75AF837
:10997000E07162780121182A18D0A278182A15D02F
:10998000E278182A12D02279182A0FD06279182A80
:109990000CD0A279182A09D0182807D004F10C009D
:1099A0000560BFF35F8F2170002070BD0648074A35
:1099B000801AC00801EB0040054902F0A7F9032016
:1099C00070BD000078220020102903001029030038
:1099D0007C1203007CB504460078082837D1607AF1
:1099E00058BB207A1C4E4FF6FF75012811D007286E
:1099F00002D008282BD121E0A08800F033FA0446D9
:109A0000A84224D0012100F0A3FD2046FEF792FDDC
:109A10001DE0A0886A46012103F042FE68B9019862
:109A2000007850B1A08800F01DFAA8420FD00122A2
:109A3000F178FEF71BF805F0CFFE08E0F06801288A
:109A400005D1BFF35F8F044900200C310860BDE8E9
:109A50007C4006F0F5BD00007822002010B50B48D0
:109A6000FFF717F8094A083AD2E90434C018D2E9D6
:109A7000063244F10001C31A71EB020204D24FF026
:109A80008072801841F1000110BD00007823002091
:109A900010B5C0B2FEF736FD0446007802F09AFE1B
:109AA00001466078012801D0012000E0002090EA02
:109AB000010F08D00449D1E90401084303D1BDE8EE
:109AC000104006F09BBB10BD582300201CB5054A72
:109AD000D2E90212CDE900120022694603F0A6FF86
:109AE0001CBD00009C0D030003484FF6FF718180F0
:109AF0000121017000207047882200202DE9FC41DF
:109B0000804600F065FA002403250127A0F57F4177
:109B10002646FF3908D06A46082103F0C1FD18B96E
:109B20000198841D8688056832462B4621464046AA
:109B3000B1DF042804D0082804D00B2808D002E0A4
:109B4000112000E00020002F00D10B20BDE8FC8197
:109B50000027A80701D50125E6E7344303D00024F8
:109B600026460325E0E7064806494246401AC00853
:109B7000012101EB0040044902F0CCF8E5E70000C8
:109B80001829030010290300441503002DE9FC41A6
:109B9000804600F01DFAA0F57F410646FF390ED041
:109BA00001252A466D1C0027ADB26B4608213046C0
:109BB00003F0C0FD040006D0072C33D033E043F29D
:109BC0000200BDE8FC81019903230A1D0B60404699
:109BD000891DB2DF040004D00C2C09D0052C09D05B
:109BE00009E032460821104603F01CFE04461AE044
:109BF000012700E000240821304603F009FE70B17F
:109C000002F0BEFC0346094809493246401AC00822
:109C1000012101EB0040074902F083F80324002FE3
:109C2000BFD100E00C242046CBE700001829030038
:109C300010290300C414030004488088A0F57F4164
:109C4000FF3901D005F0D2BD704700008822002006
:109C50000EB502A9019100F0BBF96A46012103F09B
:109C60001FFD08B100200EBD019800780EBD000058
:109C70002DE9F04107464FF6FF761048B3DF78B183
:109C800002F07EFC02460E480E49401AC00801212F
:109C900001EB00400C4902F03DF80320BDE8F081E3
:109CA000064C43F20305A41E324661883846AFDFF6
:109CB000A842F3D16088401C6080F5E78A2200202A
:109CC000182903001029030078140300428800EBD0
:109CD00082020C328A4201D9022070478188A1F5A4
:109CE0007F42FF3A06D0018821B18068401C01D034
:109CF0000020704701207047884204D20068401C51
:109D000001D001207047002070473EB50278022341
:109D10000C46B3EB520F17D1B0F80110ADF800109C
:109D2000C1788DF802108188ADF8041080798DF823
:109D3000060002AA01A92046FDF740F8032202A965
:109D40006846FCF7BEFB08B100203EBD01203EBDC9
:109D500070B50D460446142810D2FDF7A3FE68B175
:109D6000084904EB840001EB4000D0F802102960A0
:109D7000C188A980007AA871002070BD43F202005A
:109D800070BD00000C2A002070B5018890B0102929
:109D900061D1011D2C226846FCF768FB9DF8040088
:109DA0004FF6FF7603213446B1EB500F2BD003F072
:109DB000FBFD9DF804006D4640080ED001280CD034
:109DC000022820D118E00D99281D1131FCF776FFEB
:109DD00018B100BFBDF82C4015E00CAA0BA9072054
:109DE00003F0B6FD0028EED10DE00D99281D491CA9
:109DF000FFF78BFF0028EDD10CAA0BA9072003F079
:109E0000A7FD0028F1D1BDF80000B44200EB8001AD
:109E1000124820F8114000EB41000199C0F80210EF
:109E2000BDF80810C1809DF80A10017213D0BDF86A
:109E30000000ADF82E000020ADF83040084E8DF83F
:109E40002C000BAD044600BF56F824102846884766
:109E5000641C022CF8D310B070BD00000C2A002046
:109E6000B00D03002DE9F0414FF6FF760546B042F4
:109E700013D00B4F002400BF04EB840037F8100010
:109E8000A84206D12046FDF70DFE10B12046BDE8E0
:109E9000F081641CA4B2142CEED33046F7E7000026
:109EA0000C2A00203EB50C46054603F07DFD0BE074
:109EB000BDF80000A04207D02846029900F00EF835
:109EC00010B1BDF800003EBD01AA6946072003F0AD
:109ED0003FFD0028ECD14FF6FF703EBD2DE9F0416B
:109EE0000C46054600F1110701F111061022491C2C
:109EF000401CFCF7E6FA48B9681C00F0FDF928B1EF
:109F0000601C00F0F9F908B1012400E0002431469A
:109F10003846FCF7D3FE3B780222B2EB530F0CD04D
:109F20000321B1EB530F08D03378B2EB530F04D0B9
:109F3000B1EB530F01D0012100E00021084201D113
:109F40008C4302D00120BDE8F0810020FBE70188AE
:109F500011B9421892780AB101207047491C0829AA
:109F6000F7D30020704710B50C460346FFF7EFFF0C
:109F700000280AD018882188884205D10822A11C0F
:109F8000981CFCF79EFA08B1002010BD012010BDFE
:109F9000142804D2024A00EB800022F81010704707
:109FA0000C2A002070B50546FFF75CFF04462846E2
:109FB00003F07AFB002808D1142C06D2034B04EBE3
:109FC00084024FF6FF7123F8121070BD0C2A002096
:109FD00010B50446142808D2FDF764FD28B10449E1
:109FE00004EB840031F8100010BD4FF6FF7010BD77
:109FF0000C2A00203EB5044603F0D6FC0EE0019981
:10A0000020464631FFF7AFFF28B9019920462A3193
:10A01000FFF7A9FF10B1BDF808003EBD6A4602A9CE
:10A02000072003F095FC0028E9D14FF6FF703EBDF4
:10A0300010B50A4941600A4800F021FE58B902F003
:10A04000FFF907491C238C22087404488C39001F2F
:10A05000006800F07AFD002010BD0000740F0300BE
:10A06000E02F00202DE9F0412D4F002520B17D602B
:10A070004FF40640BDE8F0810879012258B1294E1D
:10A0800001280CD0264C4FF002080834022820D0BA
:10A09000032841D127E00A7103F05AF93AE0002081
:10A0A00000EB800116F82110022908D0401C80B274
:10A0B0000228F5D33A707D6041F61D50DAE700EBD7
:10A0C000800006F8205006EB8000406803F032F96B
:10A0D00020E00D71A4F804800023012212482168B9
:10A0E00001F0DAF816E00D71206803F023F90D494C
:10A0F00023682831498801EB810206EB8201D1F8FF
:10A1000004C0C4F800C04B60A3880B81A4F804808D
:10A1100006F822500028ADD07D6048F20D60A9E716
:10A12000C02300200C2F0020682400200146034893
:10A1300002888A4200D00020704700006029002079
:10A140002DE9FC5F0E008346DDE90C47C6F10000F7
:10A1500098469246814600D40846012503E000BF98
:10A1600090FBFAF06D1C5045FADAA84500D9454637
:10A1700024B1002E01DB780700D5641EB80702D594
:10A18000B8F1000F0AD0F80708D13CB1A54205D2BA
:10A1900020215846641EFEF791F9F6E7002E02DAF8
:10A1A0004E462D2102E0780703D52B215846FEF7B5
:10A1B00085F907F0030002280BD1B8F1000F08D190
:10A1C0003CB1A54205D230215846641EFEF776F90F
:10A1D000F6E7CDE90047434652463146584606F079
:10A1E000D5F9BDE8FC9F000070B50D460446006837
:10A1F0004FF4887102F0E4F94FF49071206802F096
:10A20000DFF94FF49271206802F0DAF94FF4A2718D
:10A21000206802F0D5F94FF4AC71206802F0D0F953
:10A2200020681249C0F804132068690740F307301A
:10A23000090E002804DB00F1E02080F8001405E09E
:10A2400000F00F0000F1E02080F8141D206840F3BA
:10A250000730002809DB00F01F020121914040096E
:10A26000800000F1E020C0F8001170BD1003420032
:10A27000024600201268530713D502F0030001289C
:10A2800002D002280CD105E0C2F383100B68801CB9
:10A29000184404E00223086803EB9252104408605B
:10A2A000012070470248007A002800D00120704742
:10A2B000E02F0020F0B58488A518944200D82246EB
:10A2C000A41AC288D6189A4200D81346D21A4B88CC
:10A2D0000788BB420CD34088834209D88888A042B3
:10A2E00006D3A84204D8C888904201D3B04201D90D
:10A2F0000020F0BD0120F0BD0021425C0AB1012028
:10A300007047491C1029F8D300207047800701D0FE
:10A3100000207047012070470A4810B5807860B16E
:10A32000002401E0022C06D02046FDF72DFE641C1F
:10A33000042CF7D310BD0324F6E7BDE81040FDF769
:10A3400043BE00005822002003480179C90702D00B
:10A350000078FDF781BF7047582200201721018047
:10A3600041800021017141711B218171C1717047D0
:10A370002DE9FE4F2E4F984692460D00814601D0A2
:10A3800000260DE0684600F09DFB6A460021484625
:10A3900003F0E2F83878009E10B99DF8090098B1F2
:10A3A00052463146484605F025FD04460146002246
:10A3B0004846FFF75DF80D2C37D008DCA4B3082C15
:10A3C00033D00B2C09D130E00520BDE8FE8F112CD5
:10A3D0001ED0A4F54050023827D0204602F0D0F815
:10A3E0000246144814494B46401AC008012101EBAB
:10A3F0000040124901F095FC5FF00305B8F1000F31
:10A4000004D0324621464846FEF7E2FC2846DCE707
:10A410002A46F9784846FDF729FB5246B97848465E
:10A42000FDF724FB0025E9E7FFE72546E6E7000006
:10A430002023002058290300102903007020030066
:10A4400070B50E460C49154604460978FDF7F6FA34
:10A4500000280FD0204603F025F800282A46314670
:10A46000204603D0BDE8704003F022B8BDE870403C
:10A47000FEF70EBC70BD00001823002070B5094D1A
:10A480000646A978FDF7DAFA0446E9783046FDF782
:10A49000D5FA014622463046BDE870400123FFF759
:10A4A00067BF000020230020F0B585B005460027D7
:10A4B00014216846FBF7F3FFA5F57F40ADF8025085
:10A4C000FF3825D02846FFF719FB040022D01B488F
:10A4D0001B49401AC6080B2C22D0112C1ED0A4F503
:10A4E000405002380ED0204602F04AF802460120C1
:10A4F00000EB06402B46134901F013FC2146284689
:10A5000005F0FAF810483A4681782846FDF7AEFA89
:10A5100005B0F0BD0E208DF800000BE00127F1E73B
:10A520000F208DF80000022000EB06402A46074964
:10A5300001F0F0FB6846FEF71BFDE3E7102903007E
:10A54000102903004C13030078220020A0130300FD
:10A550000A4602494978FDF789BA000078220020AE
:10A560002DE9F041002786B080463E46FFF70EFBFE
:10A57000040022D0112C22D01B481C49401AC508C7
:10A58000862C1ED0A4F5405002380ED0204601F093
:10A59000F7FF0246012000EB0540434614A101F0FD
:10A5A000C0FB2146404605F0A7F839464046FFF774
:10A5B000CFFF06B03046BDE8F0810126F5E7012760
:10A5C000F3E714221A496846FBF750FF0220ADF862
:10A5D000028000EB0540424616A101F09BFB684655
:10A5E000FEF7C6FCE1E70000102903001029030074
:10A5F0006773636D5F6C6F63616C5F64625F6361FF
:10A600006368655F7570646174652829207265747C
:10A6100075726E656420257320666F7220636F6E9D
:10A620006E5F68616E646C653A202564000000000E
:10A630005C0D0300466C6173682066756C6C2E209F
:10A64000436F756C64206E6F742073746F72652035
:10A650006461746120666F7220636F6E6E5F686103
:10A660006E646C653A202564000000002DE9FF410E
:10A670000026244800F000FB2248001F074600F097
:10A68000FBFA214C2149A06800900D6800E0009879
:10A690006946284004EB80000C30FFF7E9FD0028F4
:10A6A000F5D101AA009901EA050304EB8303491CD3
:10A6B000DB6842F82030401C00910228F2D3019858
:10A6C00000F0030001280BD0022810D101980321CB
:10A6D00001EB90500099BDF80A6001EB900005E095
:10A6E0000198BDF80A60C0F3831008440090384612
:10A6F00000F0BFFA08B10098A06004B03046BDE891
:10A70000F0810000F0350020D83100200C2400201A
:10A71000ACB04FF48041002001F076FB08B1FCF7AB
:10A7200013FC01F0BDF9FCF72DFC08B1FCF70CFCA3
:10A730005F490320FDF746FD08B1FCF705FC6946BB
:10A740000020FDF765FC08B1FCF7FEFB9DF800005A
:10A7500002287CD05FF0000501F060FC08B1FCF736
:10A76000F3FB01F021FE08B1FCF7EEFB0024694683
:10A770000120009401F0A8FC08B1FCF7E5FB684655
:10A7800001F022FD08B1FCF7DFFB9DF8080049A1AC
:10A7900020F00F00401C20F0F00010308DF8080071
:10A7A0000F2202A87CDF08B1FCF7CEFB00945020FA
:10A7B000ADF80000A0200194ADF80200ADF804400F
:10A7C0004FF4C870ADF8060068467ADF08B1FCF7B0
:10A7D000BBFB00213B4800F0DBFA08B1FCF7B4FBFF
:10A7E000AC216846FBF75BFE02208DF800000120DB
:10A7F0008DF802000621ADF810008DF87C008DF870
:10A8000003104FF4967030492290059144F2506045
:10A8100023902E4829902B4869462030FCF77DFE76
:10A8200008B1FCF791FB274801212030FCF772FEAC
:10A830002748009023486946143000F03CFB08B1DB
:10A84000FCF782FB1C216846FBF729FE00E02CE0A8
:10A850004FF4A030CDE900404FF4F02002901D48A5
:10A86000059003261C488DF80C600690ADF80E404C
:10A870008DF810406846FDF737F808B1FCF764FB27
:10A8800003F02AFA15481649401AC00806EB0040A2
:10A8900014A101F03BFA2846FCF768FA01F01AF916
:10A8A0000028FBD101F0CEFBF8E7012554E70000BA
:10A8B000058102004E6F726469635F54656D706C50
:10A8C000617465007C2400205222002085CD0200A6
:10A8D00089C00200D9CD020073870200B8290300A5
:10A8E0001029030054656D706C6174652065786192
:10A8F0006D706C6520737461727465642E00000065
:10A9000070B5144682880E4605462088111D014404
:10A91000921C994201D8FE2A01D90C2070BD521C0C
:10A9200032542088FF21401C80B22080315420887E
:10A93000401C80B220808119288805F012FE2188F1
:10A94000084480B22080AA8842B1A96841B130444D
:10A95000FBF78CFD2088A98808442080002070BD6A
:10A96000072070BD2DE9F047C5881E1DB6FBF5F721
:10A970008946B6FBF5F1044605FB176C407916686D
:10A980006843DDF820A0F718001F874200D9C61AD7
:10A99000166001E02468491E0029FBD1A5EB0C07D5
:10A9A0008846B74216D818E004EB0C00001D09EBEE
:10A9B0000803BAF1000F3A4602D00146184600E0FB
:10A9C0001946FBF753FD2468F61B4FF0000CB84402
:10A9D000B54201D9374600E02F46002EE4D1BDE84C
:10A9E000F087000030B5024651B101F021FA002194
:10A9F000074C08E034F821301568AB4202D11160F1
:10AA0000002030BD491C8142F4D3052030BD000038
:10AA100000000000BFF35F8F00F016B9F8B50F46D5
:10AA2000017814460546012901D1687830B12088A3
:10AA3000821C9A4232D8012902D006E00720F8BDD4
:10AA400069780144891C994228D8181A801E86B258
:10AA5000ADF800602188B81C084469467DDF0028F5
:10AA6000EDD12978022904D06878BDF80020904201
:10AA700005D3BDF80000B04201D809200AE0082043
:10AA8000012905D16978B14202D8ADF8001001E082
:10AA9000ADF80060BDF80010FE2901D90C20F8BD0A
:10AAA0002288491CB9542188491C89B221807854D4
:10AAB0002088401C2080BDF8001008442080002021
:10AAC000F8BD0000034A00219268C0E900218160BE
:10AAD000704700002023002070B586B00D46064662
:10AAE000144614216846FBF7DAFC8DF80050ADF8E7
:10AAF00002402046FFF76CFAADF8040014226946C4
:10AB00003046FBF7B3FC06B070BD70B54FF6FF756D
:10AB10000E46A84201D1002000E0401C84B208E0AB
:10AB20002146304600F090F808B1204670BD641C04
:10AB3000A4B2FF2CF4D9284670BD10B5FBF7B5FBC5
:10AB400008B1002010BD112010BD10B531B1B2FB0D
:10AB5000F3F403FB14241CB1092010BD0E2010BD1A
:10AB600001600021416081608281C381084610BD7F
:10AB700070B50C460546FBF74DFB002802D0218836
:10AB80002868084470BD10B50A8849888A4203D1F4
:10AB9000FBF782FB012010BD002010BD70B50C46F4
:10ABA0000546FBF75CFB002802D061882868084452
:10ABB00070BD10B50A8849888A4203D1FBF746FB6D
:10ABC000012010BD002010BD01F01F0301229A409A
:10ABD000D243490900EB8100114600F059B80A46FA
:10ABE00001F01F030121994010B552090C4600EBFA
:10ABF000820000F05DF8204000D0012010BD2DE95A
:10AC0000F04180460D460024481E012101EB5017FB
:10AC100016E058F82400C04390FAA0F0B0FA80F093
:10AC200020280CD200EB4416AE4208D231464046F2
:10AC3000FFF7D5FF0028ECD13046BDE8F081641C59
:10AC4000A742E6D82846F8E74A0950F8220001F062
:10AC50001F0201219140084000D00120704701F0FF
:10AC60001F0301229A40490900EB8100114600F0C0
:10AC700029B8002100F017B8012100F023B8012104
:10AC800000F016B808B56A46FBF75BFB009808BDF4
:10AC900008B56A46FBF73BFB009808BD08B56A4655
:10ACA000FBF74FFB08BD08B56A46FBF730FB08BD54
:10ACB00008B56A46FBF71EFB08BD08B56A46FBF7F8
:10ACC0000DFB08BD08B56A46FBF714FB009808BDEC
:10ACD00008B56A46FBF742FB009808BD38B5044644
:10ACE00000258DF800506846FCF798F921686268E5
:10ACF000086890420ED9401E08600178238AE268F5
:10AD000001FB0325227A2168101AC0B20A79824217
:10AD100000D208719DF80000FCF7A4F9284638BD60
:10AD200038B5054600208DF800000C466846FCF753
:10AD300075F9E868298A201AB0FBF1F12A681068D1
:10AD4000431C136001709DF80000FCF78BF938BDBF
:10AD500010B530B1017A42680368891AC9B21A6025
:10AD600006E00E2010BD03681A68541C1C601170A8
:10AD7000491EC9B2F7D2006800210171084610BD12
:10AD8000C20800F007030120895C98400840704722
:10AD900010B560B10161172120F8021B20F8021BD9
:10ADA0001B2100F8021BFFF7D9FA002010BD0E206E
:10ADB00010BD000070B585880C46002D4FD101886C
:10ADC00024291FD006DC102909D011290CD02329F1
:10ADD00021D11CE03A290BD055291CD10DE00146A8
:10ADE000204602F007F816E0A01DFFF7B7FA12E0C0
:10ADF0000146204602F0F2F90DE00146204602F03D
:10AE000047F908E00146204602F078F803E00146E1
:10AE1000204602F0FFF8A07A002820D0E1882846DA
:10AE2000A5DF0F490F4A0126891ACD0858B111280C
:10AE300015D001F0A5FB024606EB0540BDE87040C9
:10AE400009A100F067BF0023A372E6720420E28824
:10AE500000EB0540BDE87040104900F062BF70BDD6
:10AE6000282903001029030073645F626C655F6723
:10AE7000617474635F65786368616E67655F6D7444
:10AE8000755F7265717565737428292072657475B4
:10AE9000726E65642025732E00000000BC1503004F
:10AEA00020B10278DE2A03D0082070470E207047B8
:10AEB00041800020704760B159B10278DE2A0AD083
:10AEC00009684160DE2101704FF6FF71418000206A
:10AED00070470E207047082070477FB5054600294F
:10AEE0004DD0002D4BD008780C46DE2847D1A888DD
:10AEF0006188884202D1204605F000FC288801289C
:10AF000025D002283BD011283AD0512837D135F826
:10AF1000040F6188884232D1A978A81C02292ED159
:10AF2000017A042903D0062901D0052927D100215F
:10AF3000009102228DF8002001914FF4C07202911D
:10AF40000391ADF80420007A05280FD010E0297A8B
:10AF50002046012913D1A988428891420FD10121AD
:10AF6000017204B0BDE8704005F0C8BBADF8041034
:10AF700028886946B0DF002801D0616888477FBD16
:10AF8000A88861888842FAD14FF6FF7060807FBD43
:10AF900000F180400068002800D00120704708B50B
:10AFA00000F18040002101600068009008BD0000B1
:10AFB00070B50D4C0125207808B185260EE00020E3
:10AFC000A06060602061E060084801F01DFB06465B
:10AFD00001F036FA08B901F001FB257001F0F6FA2C
:10AFE00000B1A570304670BDF02C002079860200BB
:10AFF00038B500258DF800506846FCF70FF8084C6E
:10B00000E068401EE060E06828B901F0DFFA10B99E
:10B0100001F00AFBA5709DF80000FCF723F838BD8D
:10B02000F02C0020F0B505460478154889B0164686
:10B0300040F82420124A0869121DA2F1080742F8BC
:10B040002400487F385520226846FBF70FFA049405
:10B050002878385C48B10EB10A4A00E000226946FF
:10B06000281D01F071FD09B0F0BD0EB1064A00E0E7
:10B070000022694605F10C0001F030FCF3E7000006
:10B080003C23002021040300690203000FB408B52B
:10B090000399002904D004AA00926A4600F00FF830
:10B0A00001B05DF814FB10B582680446002A05D093
:10B0B000D4E90403216898470020A06010BD2DE961
:10B0C000FC4791460C00804676D014F8011B39B13C
:10B0D00025290ED04046FDF7F1F920780028F4D15B
:10B0E00098F80C00002867D04046BDE8FC47FFF701
:10B0F000DABF0020012221782B291BD02D2902D074
:10B10000302908D102E040F0010001E040F00200E7
:10B11000641C002AEFD100252A290ED02178A1F144
:10B1200030020A2A11D205EB850201EB4205641CAC
:10B13000303DF1E740F00400EAE7D9F800100B1DBC
:10B14000C9F800300968641C0D44217800232E29B9
:10B150000BD114F8011FA1F130020A2A05D203EB2A
:10B16000830201EB4203303BF3E76C290DD06829E1
:10B170000BD0692921D00BDC252918D0582931D0D2
:10B1800063290ED0642915D117E014F8011FECE7EC
:10B19000702969D0732932D075291BD0782909D13B
:10B1A00020E0D9F80000011DC9F8001001784046E0
:10B1B000FDF784F9641C90E76CE0D9F800100A1DD3
:10B1C000C9F800200968CDE900500A224046FEF780
:10B1D000B7FFEFE7D9F800100A1DC9F80020096889
:10B1E0000A2206E0D9F800100A1DC9F800200968F3
:10B1F0001022CDE90050404605F0C8F9DAE7D9F849
:10B20000001000270A1DC9F800200E68C00705D1EC
:10B2100012E04046761C7F1CFDF750F9317800297A
:10B22000F7D104E0202140466D1EFDF747F9BD42ED
:10B23000C0D9002DF6D1BDE74EB13046FBF73AF943
:10B24000074604E0202140466D1EFDF737F9BD4258
:10B2500006D9002DF6D103E04046761CFDF72EF905
:10B2600031780029F8D1A5E7D9F80000011DC9F807
:10B270000010056830214046FDF720F9782140464E
:10B28000FDF71CF908200021CDE90001034610223A
:10B290002946B0E7BDE8FC872DE9F843884605005C
:10B2A0002C482D499946A0EB01004FEAD0004FF001
:10B2B0000101164601EB004424D0286800282CD058
:10B2C000002E34D0696840464FF010070A68511EBE
:10B2D00011EA080F11D1014672432846FBF707FD1A
:10B2E00000282ED028684B463246046901B04146FA
:10B2F0002846A446BDE8F04360472046174B18A2F5
:10B30000009722E00E2000902046144B1EA220A1A0
:10B3100000F00FFD0E20BDE8F883082000902046C5
:10B320000E4B26A21AA100F004FD0820F3E7092025
:10B3300000902046094B24A215A100F0FAFC092038
:10B34000E9E7064B214A2046009711A100F0F1FCE5
:10B350001020E0E7A0290300102903005B0F030081
:10B36000616464725F69735F706167655F616C6976
:10B37000676E656428705F66732C20706167655F17
:10B380006164647229000000705F66730000000051
:10B39000257320636865636B206661696C65642052
:10B3A000696E202573282920776974682076616C7E
:10B3B000756520307825782E00000000705F667378
:10B3C0002D3E705F617069006C656E003421030072
:10B3D00038B503001148124D4FF00E04A0EB0500E4
:10B3E0004FEAD0004FF0010505EB004009D061B1F4
:10B3F00019600C6801B0A446BDE8304011461846FB
:10B400006047084B08A2009402E0064B08A2009493
:10B4100009A100F08EFC0E2038BD0000A029030019
:10B4200010290300100F0300705F66730000000016
:10B43000705F617069000000257320636865636B4D
:10B44000206661696C656420696E20257328292057
:10B45000776974682076616C756520307825782E60
:10B4600000000000044801214174007A08B1002066
:10B470007047012070470000E02F0020012801D014
:10B48000032808D10449002201284A7400D0002072
:10B49000087403F039BC7047E02F002070B50246F5
:10B4A000022801D0032A45D1234C207A002841D01C
:10B4B000012833D0022831D120480023022A006815
:10B4C00002D0032A2AD11BE0E360017911B10129DE
:10B4D00024D10DE0D0E90565711B4FF48056B142CF
:10B4E00000D33146294481614569A9420ED015E057
:10B4F0000169491C0161426991420FD1237213E035
:10B50000E168491CE160082908D9E3602372022A36
:10B510000AD00D21FDF732FC03F09AFB607C28B1C4
:10B52000BDE8704000F092BF0021F3E7BDE8704035
:10B5300003F0EABB70BD0000E02F0020D023002004
:10B540002DE9F84F90468A463A493B4A0500A1EB5F
:10B5500002014FEAD1014FF00102DDF828901E46AA
:10B560004FF00E0002EB01441AD0B8F1000F1CD0CE
:10B570002868002822D00920002E29D0696849684F
:10B58000B6FBF1F201FB1261002926D000902B4B93
:10B5900020462BA235A100F0CCFB0920BDE8F88F96
:10B5A00000902046254B3CA203E00090234B204610
:10B5B0003BA22EA100F0BDFB0E20EFE7082000907B
:10B5C00020461E4B38A229A100F0B3FB0820E5E776
:10B5D00000902046194B37A2DCE75046FBF781FB71
:10B5E000102798B14046FBF77CFBA0B1324651468C
:10B5F0002846FBF77CFB98B1CDF8009028683346CD
:10B600004246C46851462846A047C7E720460B4B30
:10B6100029A2009708E02046084B2DA2009703E0DE
:10B62000064B204633A2009710A100F082FB1020A9
:10B63000B4E70000A029030010290300480F03000D
:10B6400021286C656E202520705F66732D3E705F2B
:10B65000666C6173685F696E666F2D3E70726F67AE
:10B6600072616D5F756E6974290000002573206337
:10B670006865636B206661696C656420696E20256E
:10B6800073282920776974682076616C756520308D
:10B690007825782E00000000705F667300000000BF
:10B6A000705F737263000000705F66732D3E705FA1
:10B6B000617069006C656E00616464725F69735FDC
:10B6C000616C69676E656433322864657374290040
:10B6D000616464725F69735F616C69676E6564332E
:10B6E00032282875696E7433325F7429705F737203
:10B6F00063290000616464725F69735F77697468CD
:10B70000696E5F626F756E647328705F66732C205C
:10B71000646573742C206C656E29000070B541EA75
:10B720004201DDE904564FF0A04441EA830141EAB9
:10B73000052104EB800041EA0641C0F8001770BD06
:10B7400070B541EA4201DDE904564FF0A04441EAF8
:10B75000830141EA052104EB800041EA0641C0F87B
:10B76000001770BD70B541EA4201DDE904564FF0A3
:10B77000A04441EA830141EA052104EB800041EA4B
:10B780000641C0F8001770BD70B541EA4201DDE91D
:10B7900004564FF0A04441EA830141EA052104EB3D
:10B7A000800041EA0641C0F8001770BD1CB50021B9
:10B7B00000910B4601220191FFF7D4FF1CBD1CB57F
:10B7C000002100910B4601220191FFF7DDFF1CBD16
:10B7D0001CB500220B46009211460192FFF7C2FFF2
:10B7E0001CBD1CB500220B46009211460192FFF7CA
:10B7F000CBFF1CBD1CB5002100910B46012201911D
:10B800001146FFF7AFFF1CBD1CB5002100910B4690
:10B81000012201911146FFF7B7FF1CBD4FF0A04276
:10B8200002EB8000D0F8002722F44032C0F8002755
:10B83000D0F8002742EA0141C0F800177047000025
:10B8400038B5094B44181B6800936B4608E000BFED
:10B8500053F82010D1F8205520C2C1F82055401CC3
:10B860008442F5D838BD0000B80E030042094FF0FD
:10B87000000100D1491E00F01F00012282400A424F
:10B8800001D001207047002070474FF0A042D2F84D
:10B8900004350121814021EA0300C2F8080519405E
:10B8A000C2F80C15704701224FF0A043824011B13D
:10B8B000C3F808257047C3F80C257047034908B53D
:10B8C0000844002101600068009008BD006000404D
:10B8D00002494058012800D0002070470060004015
:10B8E00030B5154A01460020D2F8104423460AE03C
:10B8F000DB681D79854205D1401C0A28F6DB4FF034
:10B90000FF3030BD1B68002BF2D1431CF9D0CB684F
:10B910001871D2F8103443B1DB68CC681B6823601F
:10B92000D2F81024D268116030BDC2F81014C96872
:10B9300000220A6030BD0000D83100207047FAF7BD
:10B94000ABBE704708B5034A00924023024A00F09C
:10B9500005F808BD49F7020000300020F0B595B0A9
:10B960001C4615460F4608461A9E00F031FB18216A
:10B9700009A8FAF794FD0E96CDE909540023082290
:10B9800003A9384600F039FB05980690BDF8100071
:10B99000ADF81C00BDF81200ADF81E0000208DF8B7
:10B9A00021000398082600F00300012802D0022895
:10B9B00018D032E003983346850AC0F3C2008DF8F0
:10B9C000200003980FA9C0F38314A200384600F0AA
:10B9D00014FB09A8009006AB22460FA9284600F0E8
:10B9E00053FA1AE00398840DC0F3C2008DF82000CA
:10B9F000082C01D2254600E0082533462A460FA927
:10BA0000384600F0FAFA2E44641B09AB06AA294610
:10BA10000FA800F0A1F9002CEAD1384600F0DEFAB8
:10BA200015B0F0BD7047012004F03CBC084810B5CB
:10BA30000178084A515C19B1001D01F01FF902E0BC
:10BA40000C3001F019F8BDE81040002004F02ABCC9
:10BA5000E82300203823002008B5034A0092402341
:10BA6000024AFFF77BFF08BD99F702004030002033
:10BA70000A4A012902EBC00007D0022907D0032996
:10BA800007D0042907D00020704702207047042007
:10BA90007047007970474079704700001029030013
:10BAA00010B5FFF74CFF04210948FFF719FF0848BC
:10BAB0000124C0684471FFF7B6FF05480421103027
:10BAC000FFF70EFF02481030C068447110BD00003F
:10BAD000F02803002DE9F04F8DB0FCF707FD18B1F9
